{
  "_format": "hh-sol-artifact-1",
  "contractName": "NextRoundNFT",
  "sourceName": "contracts/NextRoundNFT.sol",
  "abi": [
    {
      "inputs": [
        {
          "internalType": "address",
          "name": "_NRCoin",
          "type": "address"
        }
      ],
      "stateMutability": "nonpayable",
      "type": "constructor"
    },
    {
      "inputs": [
        {
          "internalType": "address",
          "name": "sender",
          "type": "address"
        },
        {
          "internalType": "uint256",
          "name": "tokenId",
          "type": "uint256"
        },
        {
          "internalType": "address",
          "name": "owner",
          "type": "address"
        }
      ],
      "name": "ERC721IncorrectOwner",
      "type": "error"
    },
    {
      "inputs": [
        {
          "internalType": "address",
          "name": "operator",
          "type": "address"
        },
        {
          "internalType": "uint256",
          "name": "tokenId",
          "type": "uint256"
        }
      ],
      "name": "ERC721InsufficientApproval",
      "type": "error"
    },
    {
      "inputs": [
        {
          "internalType": "address",
          "name": "approver",
          "type": "address"
        }
      ],
      "name": "ERC721InvalidApprover",
      "type": "error"
    },
    {
      "inputs": [
        {
          "internalType": "address",
          "name": "operator",
          "type": "address"
        }
      ],
      "name": "ERC721InvalidOperator",
      "type": "error"
    },
    {
      "inputs": [
        {
          "internalType": "address",
          "name": "owner",
          "type": "address"
        }
      ],
      "name": "ERC721InvalidOwner",
      "type": "error"
    },
    {
      "inputs": [
        {
          "internalType": "address",
          "name": "receiver",
          "type": "address"
        }
      ],
      "name": "ERC721InvalidReceiver",
      "type": "error"
    },
    {
      "inputs": [
        {
          "internalType": "address",
          "name": "sender",
          "type": "address"
        }
      ],
      "name": "ERC721InvalidSender",
      "type": "error"
    },
    {
      "inputs": [
        {
          "internalType": "uint256",
          "name": "tokenId",
          "type": "uint256"
        }
      ],
      "name": "ERC721NonexistentToken",
      "type": "error"
    },
    {
      "inputs": [
        {
          "internalType": "address",
          "name": "owner",
          "type": "address"
        }
      ],
      "name": "OwnableInvalidOwner",
      "type": "error"
    },
    {
      "inputs": [
        {
          "internalType": "address",
          "name": "account",
          "type": "address"
        }
      ],
      "name": "OwnableUnauthorizedAccount",
      "type": "error"
    },
    {
      "inputs": [],
      "name": "ReentrancyGuardReentrantCall",
      "type": "error"
    },
    {
      "anonymous": false,
      "inputs": [
        {
          "indexed": true,
          "internalType": "address",
          "name": "owner",
          "type": "address"
        },
        {
          "indexed": true,
          "internalType": "address",
          "name": "approved",
          "type": "address"
        },
        {
          "indexed": true,
          "internalType": "uint256",
          "name": "tokenId",
          "type": "uint256"
        }
      ],
      "name": "Approval",
      "type": "event"
    },
    {
      "anonymous": false,
      "inputs": [
        {
          "indexed": true,
          "internalType": "address",
          "name": "owner",
          "type": "address"
        },
        {
          "indexed": true,
          "internalType": "address",
          "name": "operator",
          "type": "address"
        },
        {
          "indexed": false,
          "internalType": "bool",
          "name": "approved",
          "type": "bool"
        }
      ],
      "name": "ApprovalForAll",
      "type": "event"
    },
    {
      "anonymous": false,
      "inputs": [
        {
          "indexed": false,
          "internalType": "uint256",
          "name": "_fromTokenId",
          "type": "uint256"
        },
        {
          "indexed": false,
          "internalType": "uint256",
          "name": "_toTokenId",
          "type": "uint256"
        }
      ],
      "name": "BatchMetadataUpdate",
      "type": "event"
    },
    {
      "anonymous": false,
      "inputs": [
        {
          "indexed": true,
          "internalType": "address",
          "name": "_namerAccount",
          "type": "address"
        },
        {
          "indexed": false,
          "internalType": "string",
          "name": "_assetId",
          "type": "string"
        },
        {
          "indexed": false,
          "internalType": "string",
          "name": "_nickname",
          "type": "string"
        }
      ],
      "name": "CoasterNamed",
      "type": "event"
    },
    {
      "anonymous": false,
      "inputs": [
        {
          "indexed": true,
          "internalType": "address",
          "name": "_user",
          "type": "address"
        },
        {
          "indexed": false,
          "internalType": "string",
          "name": "_coasterId",
          "type": "string"
        }
      ],
      "name": "CoasterScanned",
      "type": "event"
    },
    {
      "anonymous": false,
      "inputs": [
        {
          "indexed": false,
          "internalType": "uint256",
          "name": "_tokenId",
          "type": "uint256"
        }
      ],
      "name": "MetadataUpdate",
      "type": "event"
    },
    {
      "anonymous": false,
      "inputs": [
        {
          "indexed": true,
          "internalType": "address",
          "name": "_user",
          "type": "address"
        },
        {
          "indexed": false,
          "internalType": "string",
          "name": "_assetId",
          "type": "string"
        }
      ],
      "name": "NFTMinted",
      "type": "event"
    },
    {
      "anonymous": false,
      "inputs": [
        {
          "indexed": true,
          "internalType": "address",
          "name": "previousOwner",
          "type": "address"
        },
        {
          "indexed": true,
          "internalType": "address",
          "name": "newOwner",
          "type": "address"
        }
      ],
      "name": "OwnershipTransferred",
      "type": "event"
    },
    {
      "anonymous": false,
      "inputs": [
        {
          "indexed": true,
          "internalType": "address",
          "name": "from",
          "type": "address"
        },
        {
          "indexed": true,
          "internalType": "address",
          "name": "to",
          "type": "address"
        },
        {
          "indexed": true,
          "internalType": "uint256",
          "name": "tokenId",
          "type": "uint256"
        }
      ],
      "name": "Transfer",
      "type": "event"
    },
    {
      "anonymous": false,
      "inputs": [
        {
          "indexed": true,
          "internalType": "address",
          "name": "_user",
          "type": "address"
        }
      ],
      "name": "UserRegistered",
      "type": "event"
    },
    {
      "inputs": [],
      "name": "DailyScanLimit",
      "outputs": [
        {
          "internalType": "uint256",
          "name": "",
          "type": "uint256"
        }
      ],
      "stateMutability": "view",
      "type": "function"
    },
    {
      "inputs": [],
      "name": "NRCPricePerMint",
      "outputs": [
        {
          "internalType": "uint256",
          "name": "",
          "type": "uint256"
        }
      ],
      "stateMutability": "view",
      "type": "function"
    },
    {
      "inputs": [],
      "name": "NRCPricePerNicknaming",
      "outputs": [
        {
          "internalType": "uint256",
          "name": "",
          "type": "uint256"
        }
      ],
      "stateMutability": "view",
      "type": "function"
    },
    {
      "inputs": [],
      "name": "NRCReward",
      "outputs": [
        {
          "internalType": "uint256",
          "name": "",
          "type": "uint256"
        }
      ],
      "stateMutability": "view",
      "type": "function"
    },
    {
      "inputs": [],
      "name": "NRCoin",
      "outputs": [
        {
          "internalType": "contract INRCoin",
          "name": "",
          "type": "address"
        }
      ],
      "stateMutability": "view",
      "type": "function"
    },
    {
      "inputs": [
        {
          "internalType": "address",
          "name": "to",
          "type": "address"
        },
        {
          "internalType": "uint256",
          "name": "tokenId",
          "type": "uint256"
        }
      ],
      "name": "approve",
      "outputs": [],
      "stateMutability": "nonpayable",
      "type": "function"
    },
    {
      "inputs": [
        {
          "internalType": "address",
          "name": "owner",
          "type": "address"
        }
      ],
      "name": "balanceOf",
      "outputs": [
        {
          "internalType": "uint256",
          "name": "",
          "type": "uint256"
        }
      ],
      "stateMutability": "view",
      "type": "function"
    },
    {
      "inputs": [
        {
          "internalType": "uint256",
          "name": "tokenId",
          "type": "uint256"
        }
      ],
      "name": "getApproved",
      "outputs": [
        {
          "internalType": "address",
          "name": "",
          "type": "address"
        }
      ],
      "stateMutability": "view",
      "type": "function"
    },
    {
      "inputs": [
        {
          "internalType": "address",
          "name": "_user",
          "type": "address"
        },
        {
          "internalType": "string",
          "name": "_coasterId",
          "type": "string"
        }
      ],
      "name": "getNFT",
      "outputs": [
        {
          "components": [
            {
              "internalType": "string",
              "name": "id",
              "type": "string"
            },
            {
              "internalType": "string",
              "name": "name",
              "type": "string"
            },
            {
              "internalType": "string",
              "name": "description",
              "type": "string"
            },
            {
              "internalType": "string",
              "name": "assetURI",
              "type": "string"
            },
            {
              "internalType": "address",
              "name": "owner",
              "type": "address"
            },
            {
              "internalType": "string",
              "name": "nickname",
              "type": "string"
            },
            {
              "internalType": "address",
              "name": "namerAccount",
              "type": "address"
            },
            {
              "internalType": "address[]",
              "name": "scannersAccount",
              "type": "address[]"
            }
          ],
          "internalType": "struct NextRoundNFT.Coaster",
          "name": "",
          "type": "tuple"
        }
      ],
      "stateMutability": "view",
      "type": "function"
    },
    {
      "inputs": [
        {
          "internalType": "address",
          "name": "owner",
          "type": "address"
        },
        {
          "internalType": "address",
          "name": "operator",
          "type": "address"
        }
      ],
      "name": "isApprovedForAll",
      "outputs": [
        {
          "internalType": "bool",
          "name": "",
          "type": "bool"
        }
      ],
      "stateMutability": "view",
      "type": "function"
    },
    {
      "inputs": [
        {
          "internalType": "address",
          "name": "_user",
          "type": "address"
        },
        {
          "internalType": "string",
          "name": "_name",
          "type": "string"
        },
        {
          "internalType": "string",
          "name": "_description",
          "type": "string"
        },
        {
          "internalType": "string",
          "name": "_assetURI",
          "type": "string"
        },
        {
          "internalType": "string",
          "name": "_assetId",
          "type": "string"
        }
      ],
      "name": "mintNFT",
      "outputs": [],
      "stateMutability": "nonpayable",
      "type": "function"
    },
    {
      "inputs": [],
      "name": "name",
      "outputs": [
        {
          "internalType": "string",
          "name": "",
          "type": "string"
        }
      ],
      "stateMutability": "view",
      "type": "function"
    },
    {
      "inputs": [
        {
          "internalType": "address",
          "name": "_user",
          "type": "address"
        },
        {
          "internalType": "string",
          "name": "_assetId",
          "type": "string"
        },
        {
          "internalType": "string",
          "name": "_nickname",
          "type": "string"
        }
      ],
      "name": "nicknameNFT",
      "outputs": [],
      "stateMutability": "nonpayable",
      "type": "function"
    },
    {
      "inputs": [
        {
          "internalType": "address",
          "name": "",
          "type": "address"
        },
        {
          "internalType": "string",
          "name": "",
          "type": "string"
        }
      ],
      "name": "ownedCoasters",
      "outputs": [
        {
          "internalType": "bool",
          "name": "",
          "type": "bool"
        }
      ],
      "stateMutability": "view",
      "type": "function"
    },
    {
      "inputs": [],
      "name": "owner",
      "outputs": [
        {
          "internalType": "address",
          "name": "",
          "type": "address"
        }
      ],
      "stateMutability": "view",
      "type": "function"
    },
    {
      "inputs": [
        {
          "internalType": "uint256",
          "name": "tokenId",
          "type": "uint256"
        }
      ],
      "name": "ownerOf",
      "outputs": [
        {
          "internalType": "address",
          "name": "",
          "type": "address"
        }
      ],
      "stateMutability": "view",
      "type": "function"
    },
    {
      "inputs": [
        {
          "internalType": "uint256",
          "name": "",
          "type": "uint256"
        }
      ],
      "name": "registeredUserAddresses",
      "outputs": [
        {
          "internalType": "address",
          "name": "",
          "type": "address"
        }
      ],
      "stateMutability": "view",
      "type": "function"
    },
    {
      "inputs": [],
      "name": "renounceOwnership",
      "outputs": [],
      "stateMutability": "nonpayable",
      "type": "function"
    },
    {
      "inputs": [
        {
          "internalType": "address",
          "name": "from",
          "type": "address"
        },
        {
          "internalType": "address",
          "name": "to",
          "type": "address"
        },
        {
          "internalType": "uint256",
          "name": "tokenId",
          "type": "uint256"
        }
      ],
      "name": "safeTransferFrom",
      "outputs": [],
      "stateMutability": "nonpayable",
      "type": "function"
    },
    {
      "inputs": [
        {
          "internalType": "address",
          "name": "from",
          "type": "address"
        },
        {
          "internalType": "address",
          "name": "to",
          "type": "address"
        },
        {
          "internalType": "uint256",
          "name": "tokenId",
          "type": "uint256"
        },
        {
          "internalType": "bytes",
          "name": "data",
          "type": "bytes"
        }
      ],
      "name": "safeTransferFrom",
      "outputs": [],
      "stateMutability": "nonpayable",
      "type": "function"
    },
    {
      "inputs": [
        {
          "internalType": "address",
          "name": "_user",
          "type": "address"
        },
        {
          "internalType": "uint256",
          "name": "_scanCount",
          "type": "uint256"
        },
        {
          "internalType": "string",
          "name": "_coasterId",
          "type": "string"
        }
      ],
      "name": "scanCoaster",
      "outputs": [],
      "stateMutability": "nonpayable",
      "type": "function"
    },
    {
      "inputs": [
        {
          "internalType": "address",
          "name": "",
          "type": "address"
        },
        {
          "internalType": "string",
          "name": "",
          "type": "string"
        }
      ],
      "name": "scannedCoasters",
      "outputs": [
        {
          "internalType": "bool",
          "name": "",
          "type": "bool"
        }
      ],
      "stateMutability": "view",
      "type": "function"
    },
    {
      "inputs": [
        {
          "internalType": "address",
          "name": "operator",
          "type": "address"
        },
        {
          "internalType": "bool",
          "name": "approved",
          "type": "bool"
        }
      ],
      "name": "setApprovalForAll",
      "outputs": [],
      "stateMutability": "nonpayable",
      "type": "function"
    },
    {
      "inputs": [
        {
          "internalType": "bytes4",
          "name": "interfaceId",
          "type": "bytes4"
        }
      ],
      "name": "supportsInterface",
      "outputs": [
        {
          "internalType": "bool",
          "name": "",
          "type": "bool"
        }
      ],
      "stateMutability": "view",
      "type": "function"
    },
    {
      "inputs": [],
      "name": "symbol",
      "outputs": [
        {
          "internalType": "string",
          "name": "",
          "type": "string"
        }
      ],
      "stateMutability": "view",
      "type": "function"
    },
    {
      "inputs": [
        {
          "internalType": "uint256",
          "name": "tokenId",
          "type": "uint256"
        }
      ],
      "name": "tokenURI",
      "outputs": [
        {
          "internalType": "string",
          "name": "",
          "type": "string"
        }
      ],
      "stateMutability": "view",
      "type": "function"
    },
    {
      "inputs": [
        {
          "internalType": "address",
          "name": "from",
          "type": "address"
        },
        {
          "internalType": "address",
          "name": "to",
          "type": "address"
        },
        {
          "internalType": "uint256",
          "name": "tokenId",
          "type": "uint256"
        }
      ],
      "name": "transferFrom",
      "outputs": [],
      "stateMutability": "nonpayable",
      "type": "function"
    },
    {
      "inputs": [
        {
          "internalType": "address",
          "name": "newOwner",
          "type": "address"
        }
      ],
      "name": "transferOwnership",
      "outputs": [],
      "stateMutability": "nonpayable",
      "type": "function"
    }
  ],
  "bytecode": "0x60806040526000600a5534801561001557600080fd5b50604051612ca4380380612ca48339810160408190526100349161014c565b336040518060400160405280600d81526020016c13995e1d149bdd5b9908139195609a1b81525060405180604001604052806005815260200164139493919560da1b8152508160009081610088919061021b565b506001610095828261021b565b50506001600755506001600160a01b0381166100cb57604051631e4fbdf760e01b81526000600482015260240160405180910390fd5b6100d4816100fa565b50600980546001600160a01b0319166001600160a01b03929092169190911790556102d9565b600880546001600160a01b038381166001600160a01b0319831681179093556040519116919082907f8be0079c531659141344cd1fd0a4f28419497f9722a3daafe3b4186f6b6457e090600090a35050565b60006020828403121561015e57600080fd5b81516001600160a01b038116811461017557600080fd5b9392505050565b634e487b7160e01b600052604160045260246000fd5b600181811c908216806101a657607f821691505b6020821081036101c657634e487b7160e01b600052602260045260246000fd5b50919050565b601f82111561021657806000526020600020601f840160051c810160208510156101f35750805b601f840160051c820191505b8181101561021357600081556001016101ff565b50505b505050565b81516001600160401b038111156102345761023461017c565b610248816102428454610192565b846101cc565b6020601f82116001811461027c57600083156102645750848201515b600019600385901b1c1916600184901b178455610213565b600084815260208120601f198516915b828110156102ac578785015182556020948501946001909201910161028c565b50848210156102ca5786840151600019600387901b60f8161c191681555b50505050600190811b01905550565b6129bc806102e86000396000f3fe608060405234801561001057600080fd5b50600436106101c45760003560e01c8063715018a6116100f9578063bd228bbd11610097578063e985e9c511610071578063e985e9c5146103b5578063ea52a156146103c8578063ee84eb7714610407578063f2fde38b1461041a57600080fd5b8063bd228bbd14610350578063c87b56dd1461038f578063cee28be1146103a257600080fd5b806395d89b41116100d357806395d89b41146103225780639af52a9114610282578063a22cb4651461032a578063b88d4fde1461033d57600080fd5b8063715018a6146102e95780638da5cb5b146102f15780639199aeca1461030257600080fd5b806341e36364116101665780635dc2e20d116101405780635dc2e20d1461026c5780636352211e146102b05780636e0690a2146102c357806370a08231146102d657600080fd5b806341e363641461028257806342842e0e1461028a5780634918c4f61461029d57600080fd5b8063095ea7b3116101a2578063095ea7b3146102315780632365dce21461024657806323b872dd1461025957806330c293de1461026c57600080fd5b806301ffc9a7146101c957806306fdde03146101f1578063081812fc14610206575b600080fd5b6101dc6101d7366004611fd1565b61042d565b60405190151581526020015b60405180910390f35b6101f961043e565b6040516101e8919061203e565b610219610214366004612051565b6104d0565b6040516001600160a01b0390911681526020016101e8565b61024461023f366004612086565b6104f9565b005b610219610254366004612051565b610508565b6102446102673660046120b0565b610532565b610274600581565b6040519081526020016101e8565b610274600181565b6102446102983660046120b0565b6105c2565b6102446102ab366004612135565b6105e2565b6102196102be366004612051565b61091d565b600954610219906001600160a01b031681565b6102746102e436600461218e565b610928565b610244610970565b6008546001600160a01b0316610219565b610315610310366004612237565b610984565b6040516101e891906122dd565b6101f9610e5a565b6102446103383660046123d0565b610e69565b61024461034b36600461240c565b610e74565b6101dc61035e366004612237565b600e602090815260009283526040909220815180830184018051928152908401929093019190912091525460ff1681565b6101f961039d366004612051565b610e8c565b6102446103b0366004612487565b610e97565b6101dc6103c336600461256d565b6112f4565b6101dc6103d6366004612237565b600d602090815260009283526040909220815180830184018051928152908401929093019190912091525460ff1681565b6102446104153660046125a0565b611322565b61024461042836600461218e565b611539565b600061043882611577565b92915050565b60606000805461044d90612624565b80601f016020809104026020016040519081016040528092919081815260200182805461047990612624565b80156104c65780601f1061049b576101008083540402835291602001916104c6565b820191906000526020600020905b8154815290600101906020018083116104a957829003601f168201915b5050505050905090565b60006104db8261159c565b506000828152600460205260409020546001600160a01b0316610438565b6105048282336115d5565b5050565b600b818154811061051857600080fd5b6000918252602090912001546001600160a01b0316905081565b6001600160a01b03821661056157604051633250574960e11b8152600060048201526024015b60405180910390fd5b600061056e8383336115e2565b9050836001600160a01b0316816001600160a01b0316146105bc576040516364283d7b60e01b81526001600160a01b0380861660048301526024820184905282166044820152606401610558565b50505050565b6105dd83838360405180602001604052806000815250610e74565b505050565b6105ea6116db565b6105f2611708565b6001600160a01b0384166000908152600e602052604090819020905161061b908490849061265e565b9081526040519081900360200190205460ff161561067b5760405162461bcd60e51b815260206004820152601860248201527f436f617374657220616c7265616479207363616e6e65642e00000000000000006044820152606401610558565b6001600160a01b0384166000908152600d60205260409081902090516106a4908490849061265e565b9081526040519081900360200190205460ff161561070f5760405162461bcd60e51b815260206004820152602260248201527f596f752063616e206e6f74207363616e20796f7572206f776e20436f61737465604482015261391760f11b6064820152608401610558565b600954604051630103c92b60e01b81526001600160a01b0386811660048301526000921690630103c92b90602401602060405180830381865afa15801561075a573d6000803e3d6000fd5b505050506040513d601f19601f8201168201806040525081019061077e919061266e565b10156107c45760405162461bcd60e51b815260206004820152601560248201527424b73b30b634b2103ab9b2b91030b1b1b7bab73a1760591b6044820152606401610558565b600583111561083b5760405162461bcd60e51b815260206004820152603f60248201527f596f752068617665207265616368656420796f7572206461696c79206c696d6960448201527f74206f66207363616e732e2054727920616761696e20746f6d6f72726f772e006064820152608401610558565b6001600160a01b0384166000908152600e602052604090819020905160019190610868908590859061265e565b908152604051908190036020018120805492151560ff1990931692909217909155600c90610899908490849061265e565b9081526040519081900360209081018220600701805460018101825560009182529190200180546001600160a01b0387166001600160a01b03199091168117909155907fa102e7cfa1a123ee2b7875a4863e2da990b4480be2b4c43ced07d863be7c59269061090b90859085906126b0565b60405180910390a26105bc6001600755565b60006104388261159c565b60006001600160a01b038216610954576040516322718ad960e21b815260006004820152602401610558565b506001600160a01b031660009081526003602052604090205490565b6109786116db565b6109826000611732565b565b6109de6040518061010001604052806060815260200160608152602001606081526020016060815260200160006001600160a01b031681526020016060815260200160006001600160a01b03168152602001606081525090565b6109e66116db565b6001600160a01b0383166000908152600d6020526040908190209051610a0d9084906126c4565b9081526040519081900360200190205460ff1680610a6157506001600160a01b0383166000908152600e6020526040908190209051610a4d9084906126c4565b9081526040519081900360200190205460ff165b610ac15760405162461bcd60e51b815260206004820152602b60248201527f436f6173746572206173736574206e6f7420666f756e6420696e20796f75722060448201526a31b7b63632b1ba34b7b71760a91b6064820152608401610558565b6000600c83604051610ad391906126c4565b908152602001604051809103902060405180610100016040529081600082018054610afd90612624565b80601f0160208091040260200160405190810160405280929190818152602001828054610b2990612624565b8015610b765780601f10610b4b57610100808354040283529160200191610b76565b820191906000526020600020905b815481529060010190602001808311610b5957829003601f168201915b50505050508152602001600182018054610b8f90612624565b80601f0160208091040260200160405190810160405280929190818152602001828054610bbb90612624565b8015610c085780601f10610bdd57610100808354040283529160200191610c08565b820191906000526020600020905b815481529060010190602001808311610beb57829003601f168201915b50505050508152602001600282018054610c2190612624565b80601f0160208091040260200160405190810160405280929190818152602001828054610c4d90612624565b8015610c9a5780601f10610c6f57610100808354040283529160200191610c9a565b820191906000526020600020905b815481529060010190602001808311610c7d57829003601f168201915b50505050508152602001600382018054610cb390612624565b80601f0160208091040260200160405190810160405280929190818152602001828054610cdf90612624565b8015610d2c5780601f10610d0157610100808354040283529160200191610d2c565b820191906000526020600020905b815481529060010190602001808311610d0f57829003601f168201915b505050918352505060048201546001600160a01b03166020820152600582018054604090920191610d5c90612624565b80601f0160208091040260200160405190810160405280929190818152602001828054610d8890612624565b8015610dd55780601f10610daa57610100808354040283529160200191610dd5565b820191906000526020600020905b815481529060010190602001808311610db857829003601f168201915b505050918352505060068201546001600160a01b03166020808301919091526007830180546040805182850281018501825282815294019392830182828015610e4757602002820191906000526020600020905b81546001600160a01b03168152600190910190602001808311610e29575b5050509190925250919695505050505050565b60606001805461044d90612624565b610504338383611784565b610e7f848484610532565b6105bc3385858585611823565b60606104388261194d565b610e9f6116db565b610ea7611708565b600c8282604051610eb992919061265e565b9081526040519081900360200190208054610ed390612624565b159050610f1b5760405162461bcd60e51b815260206004820152601660248201527521b7b0b9ba32b91030b63932b0b23c9032bc34b9ba1760511b6044820152606401610558565b600954604051630103c92b60e01b81526001600160a01b038b811660048301526005921690630103c92b90602401602060405180830381865afa158015610f66573d6000803e3d6000fd5b505050506040513d601f19601f82011682018060405250810190610f8a919061266e565b1015610fd05760405162461bcd60e51b815260206004820152601560248201527424b739bab33334b1b4b2b73a103130b630b731b29760591b6044820152606401610558565b600a8054906000610fe0836126e0565b9091555050600a54610ff28a82611a5e565b6110328186868080601f016020809104026020016040519081016040528093929190818152602001838380828437600092019190915250611a7892505050565b60405180610100016040528084848080601f016020809104026020016040519081016040528093929190818152602001838380828437600092019190915250505090825250604080516020601f8d018190048102820181019092528b815291810191908c908c9081908401838280828437600092019190915250505090825250604080516020601f8b0181900481028201810190925289815291810191908a908a9081908401838280828437600092019190915250505090825250604080516020601f89018190048102820181019092528781529181019190889088908190840183828082843760009201829052509385525050506001600160a01b038d1660208084019190915260408051808301825283815281850152606084018390528051928352908201815260809092015251600c90611172908690869061265e565b9081526040519081900360200190208151819061118f908261274e565b50602082015160018201906111a4908261274e565b50604082015160028201906111b9908261274e565b50606082015160038201906111ce908261274e565b5060808201516004820180546001600160a01b0319166001600160a01b0390921691909117905560a08201516005820190611209908261274e565b5060c08201516006820180546001600160a01b0319166001600160a01b0390921691909117905560e0820151805161124b916007840191602090910190611f41565b5050506001600160a01b038a166000908152600d60205260409081902090516001919061127b908690869061265e565b908152604051908190036020018120805492151560ff19909316929092179091556001600160a01b038b16907f371f376692dd846fa34380a8fd44c6a140dc5cd442cd8ae5657963685f17ebed906112d690869086906126b0565b60405180910390a2506112e96001600755565b505050505050505050565b6001600160a01b03918216600090815260056020908152604080832093909416825291909152205460ff1690565b61132a6116db565b611332611708565b600954604051630103c92b60e01b81526001600160a01b0387811660048301526001921690630103c92b90602401602060405180830381865afa15801561137d573d6000803e3d6000fd5b505050506040513d601f19601f820116820180604052508101906113a1919061266e565b10156113e75760405162461bcd60e51b815260206004820152601560248201527424b739bab33334b1b4b2b73a103130b630b731b29760591b6044820152606401610558565b6000600c85856040516113fb92919061265e565b9081526020016040518091039020905080600501805461141a90612624565b15905061145f5760405162461bcd60e51b8152602060048201526013602482015272105cdcd95d08185b1c9958591e481b985b5959606a1b6044820152606401610558565b60048101546001600160a01b03166114b95760405162461bcd60e51b815260206004820152601760248201527f436f617374657220646f6573206e6f742065786973742e0000000000000000006044820152606401610558565b600581016114c883858361280c565b506006810180546001600160a01b0319166001600160a01b0388169081179091556040517f8ddc804fe891e93143e1ff64637459a983d0c09831f8c83fa2264ddf2e46932e9061151f9088908890889088906128cb565b60405180910390a2506115326001600755565b5050505050565b6115416116db565b6001600160a01b03811661156b57604051631e4fbdf760e01b815260006004820152602401610558565b61157481611732565b50565b60006001600160e01b03198216632483248360e11b1480610438575061043882611ac8565b6000818152600260205260408120546001600160a01b03168061043857604051637e27328960e01b815260048101849052602401610558565b6105dd8383836001611b18565b6000828152600260205260408120546001600160a01b039081169083161561160f5761160f818486611c1e565b6001600160a01b0381161561164d5761162c600085600080611b18565b6001600160a01b038116600090815260036020526040902080546000190190555b6001600160a01b0385161561167c576001600160a01b0385166000908152600360205260409020805460010190555b60008481526002602052604080822080546001600160a01b0319166001600160a01b0389811691821790925591518793918516917fddf252ad1be2c89b69c2b068fc378daa952ba7f163c4a11628f55a4df523b3ef91a4949350505050565b6008546001600160a01b031633146109825760405163118cdaa760e01b8152336004820152602401610558565b60026007540361172b57604051633ee5aeb560e01b815260040160405180910390fd5b6002600755565b600880546001600160a01b038381166001600160a01b0319831681179093556040519116919082907f8be0079c531659141344cd1fd0a4f28419497f9722a3daafe3b4186f6b6457e090600090a35050565b6001600160a01b0382166117b657604051630b61174360e31b81526001600160a01b0383166004820152602401610558565b6001600160a01b03838116600081815260056020908152604080832094871680845294825291829020805460ff191686151590811790915591519182527f17307eab39ab6107e8899845ad3d59bd9653f200f220920489ca2b5937696c31910160405180910390a3505050565b6001600160a01b0383163b1561153257604051630a85bd0160e11b81526001600160a01b0384169063150b7a02906118659088908890879087906004016128fd565b6020604051808303816000875af19250505080156118a0575060408051601f3d908101601f1916820190925261189d9181019061293a565b60015b611909573d8080156118ce576040519150601f19603f3d011682016040523d82523d6000602084013e6118d3565b606091505b50805160000361190157604051633250574960e11b81526001600160a01b0385166004820152602401610558565b805181602001fd5b6001600160e01b03198116630a85bd0160e11b1461194557604051633250574960e11b81526001600160a01b0385166004820152602401610558565b505050505050565b60606119588261159c565b506000828152600660205260408120805461197290612624565b80601f016020809104026020016040519081016040528092919081815260200182805461199e90612624565b80156119eb5780601f106119c0576101008083540402835291602001916119eb565b820191906000526020600020905b8154815290600101906020018083116119ce57829003601f168201915b505050505090506000611a0960408051602081019091526000815290565b90508051600003611a1b575092915050565b815115611a4d578082604051602001611a35929190612957565b60405160208183030381529060405292505050919050565b611a5684611c82565b949350505050565b610504828260405180602001604052806000815250611cf7565b6000828152600660205260409020611a90828261274e565b506040518281527ff8e1a15aba9398e019f0b49df1a4fde98ee17ae345cb5f6b5e2c27f5033e8ce79060200160405180910390a15050565b60006001600160e01b031982166380ac58cd60e01b1480611af957506001600160e01b03198216635b5e139f60e01b145b8061043857506301ffc9a760e01b6001600160e01b0319831614610438565b8080611b2c57506001600160a01b03821615155b15611bee576000611b3c8461159c565b90506001600160a01b03831615801590611b685750826001600160a01b0316816001600160a01b031614155b8015611b7b5750611b7981846112f4565b155b15611ba45760405163a9fbf51f60e01b81526001600160a01b0384166004820152602401610558565b8115611bec5783856001600160a01b0316826001600160a01b03167f8c5be1e5ebec7d5bd14f71427d1e84f3dd0314c0f7b2291e5b200ac8c7c3b92560405160405180910390a45b505b5050600090815260046020526040902080546001600160a01b0319166001600160a01b0392909216919091179055565b611c29838383611d0f565b6105dd576001600160a01b038316611c5757604051637e27328960e01b815260048101829052602401610558565b60405163177e802f60e01b81526001600160a01b038316600482015260248101829052604401610558565b6060611c8d8261159c565b506000611ca560408051602081019091526000815290565b90506000815111611cc55760405180602001604052806000815250611cf0565b80611ccf84611d72565b604051602001611ce0929190612957565b6040516020818303038152906040525b9392505050565b611d018383611e04565b6105dd336000858585611823565b60006001600160a01b03831615801590611a565750826001600160a01b0316846001600160a01b03161480611d495750611d4984846112f4565b80611a565750506000908152600460205260409020546001600160a01b03908116911614919050565b60606000611d7f83611e69565b60010190506000816001600160401b03811115611d9e57611d9e6121a9565b6040519080825280601f01601f191660200182016040528015611dc8576020820181803683370190505b5090508181016020015b600019016f181899199a1a9b1b9c1cb0b131b232b360811b600a86061a8153600a8504945084611dd257509392505050565b6001600160a01b038216611e2e57604051633250574960e11b815260006004820152602401610558565b6000611e3c838360006115e2565b90506001600160a01b038116156105dd576040516339e3563760e11b815260006004820152602401610558565b60008072184f03e93ff9f4daa797ed6e38ed64bf6a1f0160401b8310611ea85772184f03e93ff9f4daa797ed6e38ed64bf6a1f0160401b830492506040015b6d04ee2d6d415b85acef81000000008310611ed4576d04ee2d6d415b85acef8100000000830492506020015b662386f26fc100008310611ef257662386f26fc10000830492506010015b6305f5e1008310611f0a576305f5e100830492506008015b6127108310611f1e57612710830492506004015b60648310611f30576064830492506002015b600a83106104385760010192915050565b828054828255906000526020600020908101928215611f96579160200282015b82811115611f9657825182546001600160a01b0319166001600160a01b03909116178255602090920191600190910190611f61565b50611fa2929150611fa6565b5090565b5b80821115611fa25760008155600101611fa7565b6001600160e01b03198116811461157457600080fd5b600060208284031215611fe357600080fd5b8135611cf081611fbb565b60005b83811015612009578181015183820152602001611ff1565b50506000910152565b6000815180845261202a816020860160208601611fee565b601f01601f19169290920160200192915050565b602081526000611cf06020830184612012565b60006020828403121561206357600080fd5b5035919050565b80356001600160a01b038116811461208157600080fd5b919050565b6000806040838503121561209957600080fd5b6120a28361206a565b946020939093013593505050565b6000806000606084860312156120c557600080fd5b6120ce8461206a565b92506120dc6020850161206a565b929592945050506040919091013590565b60008083601f8401126120ff57600080fd5b5081356001600160401b0381111561211657600080fd5b60208301915083602082850101111561212e57600080fd5b9250929050565b6000806000806060858703121561214b57600080fd5b6121548561206a565b93506020850135925060408501356001600160401b0381111561217657600080fd5b612182878288016120ed565b95989497509550505050565b6000602082840312156121a057600080fd5b611cf08261206a565b634e487b7160e01b600052604160045260246000fd5b6000806001600160401b038411156121d9576121d96121a9565b50604051601f19601f85018116603f011681018181106001600160401b0382111715612207576122076121a9565b60405283815290508082840185101561221f57600080fd5b83836020830137600060208583010152509392505050565b6000806040838503121561224a57600080fd5b6122538361206a565b915060208301356001600160401b0381111561226e57600080fd5b8301601f8101851361227f57600080fd5b61228e858235602084016121bf565b9150509250929050565b600081518084526020840193506020830160005b828110156122d35781516001600160a01b03168652602095860195909101906001016122ac565b5093949350505050565b602081526000825161010060208401526122fb610120840182612012565b90506020840151601f198483030160408501526123188282612012565b9150506040840151601f198483030160608501526123368282612012565b9150506060840151601f198483030160808501526123548282612012565b915050608084015161237160a08501826001600160a01b03169052565b5060a0840151838203601f190160c085015261238d8282612012565b91505060c08401516123aa60e08501826001600160a01b03169052565b5060e0840151838203601f19016101008501526123c78282612298565b95945050505050565b600080604083850312156123e357600080fd5b6123ec8361206a565b91506020830135801515811461240157600080fd5b809150509250929050565b6000806000806080858703121561242257600080fd5b61242b8561206a565b93506124396020860161206a565b92506040850135915060608501356001600160401b0381111561245b57600080fd5b8501601f8101871361246c57600080fd5b61247b878235602084016121bf565b91505092959194509250565b600080600080600080600080600060a08a8c0312156124a557600080fd5b6124ae8a61206a565b985060208a01356001600160401b038111156124c957600080fd5b6124d58c828d016120ed565b90995097505060408a01356001600160401b038111156124f457600080fd5b6125008c828d016120ed565b90975095505060608a01356001600160401b0381111561251f57600080fd5b61252b8c828d016120ed565b90955093505060808a01356001600160401b0381111561254a57600080fd5b6125568c828d016120ed565b915080935050809150509295985092959850929598565b6000806040838503121561258057600080fd5b6125898361206a565b91506125976020840161206a565b90509250929050565b6000806000806000606086880312156125b857600080fd5b6125c18661206a565b945060208601356001600160401b038111156125dc57600080fd5b6125e8888289016120ed565b90955093505060408601356001600160401b0381111561260757600080fd5b612613888289016120ed565b969995985093965092949392505050565b600181811c9082168061263857607f821691505b60208210810361265857634e487b7160e01b600052602260045260246000fd5b50919050565b8183823760009101908152919050565b60006020828403121561268057600080fd5b5051919050565b81835281816020850137506000828201602090810191909152601f909101601f19169091010190565b602081526000611a56602083018486612687565b600082516126d6818460208701611fee565b9190910192915050565b60006001820161270057634e487b7160e01b600052601160045260246000fd5b5060010190565b601f8211156105dd57806000526020600020601f840160051c8101602085101561272e5750805b601f840160051c820191505b81811015611532576000815560010161273a565b81516001600160401b03811115612767576127676121a9565b61277b816127758454612624565b84612707565b6020601f8211600181146127af57600083156127975750848201515b600019600385901b1c1916600184901b178455611532565b600084815260208120601f198516915b828110156127df57878501518255602094850194600190920191016127bf565b50848210156127fd5786840151600019600387901b60f8161c191681555b50505050600190811b01905550565b6001600160401b03831115612823576128236121a9565b612837836128318354612624565b83612707565b6000601f84116001811461286b57600085156128535750838201355b600019600387901b1c1916600186901b178355611532565b600083815260209020601f19861690835b8281101561289c578685013582556020948501946001909201910161287c565b50868210156128b95760001960f88860031b161c19848701351681555b505060018560011b0183555050505050565b6040815260006128df604083018688612687565b82810360208401526128f2818587612687565b979650505050505050565b6001600160a01b038581168252841660208201526040810183905260806060820181905260009061293090830184612012565b9695505050505050565b60006020828403121561294c57600080fd5b8151611cf081611fbb565b60008351612969818460208801611fee565b83519083019061297d818360208801611fee565b0194935050505056fea26469706673582212206cd6cacfcc90718978620ebe7b1b015c84f6bdb38f5eb8ee4dc4227ed0cf8cf564736f6c634300081b0033",
  "linkReferences": {},
  "deployedLinkReferences": {}
}