{
  "_format": "hh-sol-artifact-1",
  "contractName": "NextRound",
  "sourceName": "contracts/NextRound.sol",
  "abi": [
    {
      "inputs": [],
      "stateMutability": "nonpayable",
      "type": "constructor"
    },
    {
      "inputs": [
        {
          "internalType": "address",
          "name": "spender",
          "type": "address"
        },
        {
          "internalType": "uint256",
          "name": "allowance",
          "type": "uint256"
        },
        {
          "internalType": "uint256",
          "name": "needed",
          "type": "uint256"
        }
      ],
      "name": "ERC20InsufficientAllowance",
      "type": "error"
    },
    {
      "inputs": [
        {
          "internalType": "address",
          "name": "sender",
          "type": "address"
        },
        {
          "internalType": "uint256",
          "name": "balance",
          "type": "uint256"
        },
        {
          "internalType": "uint256",
          "name": "needed",
          "type": "uint256"
        }
      ],
      "name": "ERC20InsufficientBalance",
      "type": "error"
    },
    {
      "inputs": [
        {
          "internalType": "address",
          "name": "approver",
          "type": "address"
        }
      ],
      "name": "ERC20InvalidApprover",
      "type": "error"
    },
    {
      "inputs": [
        {
          "internalType": "address",
          "name": "receiver",
          "type": "address"
        }
      ],
      "name": "ERC20InvalidReceiver",
      "type": "error"
    },
    {
      "inputs": [
        {
          "internalType": "address",
          "name": "sender",
          "type": "address"
        }
      ],
      "name": "ERC20InvalidSender",
      "type": "error"
    },
    {
      "inputs": [
        {
          "internalType": "address",
          "name": "spender",
          "type": "address"
        }
      ],
      "name": "ERC20InvalidSpender",
      "type": "error"
    },
    {
      "inputs": [
        {
          "internalType": "address",
          "name": "owner",
          "type": "address"
        }
      ],
      "name": "OwnableInvalidOwner",
      "type": "error"
    },
    {
      "inputs": [
        {
          "internalType": "address",
          "name": "account",
          "type": "address"
        }
      ],
      "name": "OwnableUnauthorizedAccount",
      "type": "error"
    },
    {
      "inputs": [],
      "name": "ReentrancyGuardReentrantCall",
      "type": "error"
    },
    {
      "anonymous": false,
      "inputs": [
        {
          "indexed": false,
          "internalType": "string",
          "name": "_message",
          "type": "string"
        }
      ],
      "name": "AccountReset",
      "type": "event"
    },
    {
      "anonymous": false,
      "inputs": [
        {
          "indexed": true,
          "internalType": "address",
          "name": "owner",
          "type": "address"
        },
        {
          "indexed": true,
          "internalType": "address",
          "name": "spender",
          "type": "address"
        },
        {
          "indexed": false,
          "internalType": "uint256",
          "name": "value",
          "type": "uint256"
        }
      ],
      "name": "Approval",
      "type": "event"
    },
    {
      "anonymous": false,
      "inputs": [
        {
          "indexed": false,
          "internalType": "string",
          "name": "_message",
          "type": "string"
        },
        {
          "indexed": false,
          "internalType": "uint256",
          "name": "_txCount",
          "type": "uint256"
        }
      ],
      "name": "BatchTransaction",
      "type": "event"
    },
    {
      "anonymous": false,
      "inputs": [
        {
          "indexed": true,
          "internalType": "address",
          "name": "_user",
          "type": "address"
        },
        {
          "indexed": false,
          "internalType": "uint256",
          "name": "_amount",
          "type": "uint256"
        }
      ],
      "name": "NRCPayment",
      "type": "event"
    },
    {
      "anonymous": false,
      "inputs": [
        {
          "indexed": true,
          "internalType": "address",
          "name": "previousOwner",
          "type": "address"
        },
        {
          "indexed": true,
          "internalType": "address",
          "name": "newOwner",
          "type": "address"
        }
      ],
      "name": "OwnershipTransferred",
      "type": "event"
    },
    {
      "anonymous": false,
      "inputs": [
        {
          "indexed": true,
          "internalType": "address",
          "name": "from",
          "type": "address"
        },
        {
          "indexed": true,
          "internalType": "address",
          "name": "to",
          "type": "address"
        },
        {
          "indexed": false,
          "internalType": "uint256",
          "name": "value",
          "type": "uint256"
        }
      ],
      "name": "Transfer",
      "type": "event"
    },
    {
      "anonymous": false,
      "inputs": [
        {
          "indexed": true,
          "internalType": "address",
          "name": "_user",
          "type": "address"
        }
      ],
      "name": "UserRegistered",
      "type": "event"
    },
    {
      "anonymous": false,
      "inputs": [
        {
          "indexed": true,
          "internalType": "address",
          "name": "_user",
          "type": "address"
        },
        {
          "indexed": false,
          "internalType": "uint256",
          "name": "_amount",
          "type": "uint256"
        }
      ],
      "name": "UserRewarded",
      "type": "event"
    },
    {
      "inputs": [],
      "name": "TOTAL_SUPPLY",
      "outputs": [
        {
          "internalType": "uint256",
          "name": "",
          "type": "uint256"
        }
      ],
      "stateMutability": "view",
      "type": "function"
    },
    {
      "inputs": [
        {
          "internalType": "address",
          "name": "owner",
          "type": "address"
        },
        {
          "internalType": "address",
          "name": "spender",
          "type": "address"
        }
      ],
      "name": "allowance",
      "outputs": [
        {
          "internalType": "uint256",
          "name": "",
          "type": "uint256"
        }
      ],
      "stateMutability": "view",
      "type": "function"
    },
    {
      "inputs": [
        {
          "internalType": "address",
          "name": "spender",
          "type": "address"
        },
        {
          "internalType": "uint256",
          "name": "value",
          "type": "uint256"
        }
      ],
      "name": "approve",
      "outputs": [
        {
          "internalType": "bool",
          "name": "",
          "type": "bool"
        }
      ],
      "stateMutability": "nonpayable",
      "type": "function"
    },
    {
      "inputs": [
        {
          "internalType": "address",
          "name": "account",
          "type": "address"
        }
      ],
      "name": "balanceOf",
      "outputs": [
        {
          "internalType": "uint256",
          "name": "",
          "type": "uint256"
        }
      ],
      "stateMutability": "view",
      "type": "function"
    },
    {
      "inputs": [
        {
          "components": [
            {
              "internalType": "address",
              "name": "wallet",
              "type": "address"
            },
            {
              "internalType": "string",
              "name": "action",
              "type": "string"
            },
            {
              "internalType": "uint256",
              "name": "amount",
              "type": "uint256"
            }
          ],
          "internalType": "struct NextRound.BatchTx[]",
          "name": "_transactions",
          "type": "tuple[]"
        }
      ],
      "name": "batchTransactions",
      "outputs": [],
      "stateMutability": "nonpayable",
      "type": "function"
    },
    {
      "inputs": [
        {
          "internalType": "uint256",
          "name": "value",
          "type": "uint256"
        }
      ],
      "name": "burn",
      "outputs": [],
      "stateMutability": "nonpayable",
      "type": "function"
    },
    {
      "inputs": [
        {
          "internalType": "address",
          "name": "account",
          "type": "address"
        },
        {
          "internalType": "uint256",
          "name": "value",
          "type": "uint256"
        }
      ],
      "name": "burnFrom",
      "outputs": [],
      "stateMutability": "nonpayable",
      "type": "function"
    },
    {
      "inputs": [
        {
          "internalType": "address",
          "name": "_user",
          "type": "address"
        },
        {
          "internalType": "uint256",
          "name": "_amount",
          "type": "uint256"
        }
      ],
      "name": "chargeUser",
      "outputs": [],
      "stateMutability": "nonpayable",
      "type": "function"
    },
    {
      "inputs": [],
      "name": "decimals",
      "outputs": [
        {
          "internalType": "uint8",
          "name": "",
          "type": "uint8"
        }
      ],
      "stateMutability": "view",
      "type": "function"
    },
    {
      "inputs": [],
      "name": "name",
      "outputs": [
        {
          "internalType": "string",
          "name": "",
          "type": "string"
        }
      ],
      "stateMutability": "view",
      "type": "function"
    },
    {
      "inputs": [],
      "name": "owner",
      "outputs": [
        {
          "internalType": "address",
          "name": "",
          "type": "address"
        }
      ],
      "stateMutability": "view",
      "type": "function"
    },
    {
      "inputs": [
        {
          "internalType": "address",
          "name": "_user",
          "type": "address"
        }
      ],
      "name": "register",
      "outputs": [],
      "stateMutability": "nonpayable",
      "type": "function"
    },
    {
      "inputs": [
        {
          "internalType": "uint256",
          "name": "",
          "type": "uint256"
        }
      ],
      "name": "registeredUserAddresses",
      "outputs": [
        {
          "internalType": "address",
          "name": "",
          "type": "address"
        }
      ],
      "stateMutability": "view",
      "type": "function"
    },
    {
      "inputs": [
        {
          "internalType": "address",
          "name": "",
          "type": "address"
        }
      ],
      "name": "registeredUsers",
      "outputs": [
        {
          "internalType": "bool",
          "name": "",
          "type": "bool"
        }
      ],
      "stateMutability": "view",
      "type": "function"
    },
    {
      "inputs": [],
      "name": "renounceOwnership",
      "outputs": [],
      "stateMutability": "nonpayable",
      "type": "function"
    },
    {
      "inputs": [],
      "name": "resetAllNRC",
      "outputs": [],
      "stateMutability": "nonpayable",
      "type": "function"
    },
    {
      "inputs": [
        {
          "internalType": "address",
          "name": "_user",
          "type": "address"
        },
        {
          "internalType": "uint256",
          "name": "_amount",
          "type": "uint256"
        }
      ],
      "name": "rewardUser",
      "outputs": [],
      "stateMutability": "nonpayable",
      "type": "function"
    },
    {
      "inputs": [],
      "name": "symbol",
      "outputs": [
        {
          "internalType": "string",
          "name": "",
          "type": "string"
        }
      ],
      "stateMutability": "view",
      "type": "function"
    },
    {
      "inputs": [],
      "name": "totalSupply",
      "outputs": [
        {
          "internalType": "uint256",
          "name": "",
          "type": "uint256"
        }
      ],
      "stateMutability": "view",
      "type": "function"
    },
    {
      "inputs": [
        {
          "internalType": "address",
          "name": "to",
          "type": "address"
        },
        {
          "internalType": "uint256",
          "name": "value",
          "type": "uint256"
        }
      ],
      "name": "transfer",
      "outputs": [
        {
          "internalType": "bool",
          "name": "",
          "type": "bool"
        }
      ],
      "stateMutability": "nonpayable",
      "type": "function"
    },
    {
      "inputs": [
        {
          "internalType": "address",
          "name": "from",
          "type": "address"
        },
        {
          "internalType": "address",
          "name": "to",
          "type": "address"
        },
        {
          "internalType": "uint256",
          "name": "value",
          "type": "uint256"
        }
      ],
      "name": "transferFrom",
      "outputs": [
        {
          "internalType": "bool",
          "name": "",
          "type": "bool"
        }
      ],
      "stateMutability": "nonpayable",
      "type": "function"
    },
    {
      "inputs": [
        {
          "internalType": "address",
          "name": "newOwner",
          "type": "address"
        }
      ],
      "name": "transferOwnership",
      "outputs": [],
      "stateMutability": "nonpayable",
      "type": "function"
    },
    {
      "inputs": [
        {
          "internalType": "address",
          "name": "_user",
          "type": "address"
        }
      ],
      "name": "userBalance",
      "outputs": [
        {
          "internalType": "uint256",
          "name": "_balance",
          "type": "uint256"
        }
      ],
      "stateMutability": "view",
      "type": "function"
    }
  ],
  "bytecode": "0x608060405234801561001057600080fd5b50336040518060400160405280600e81526020016d2732bc3a2937bab7321021b7b4b760911b815250604051806040016040528060038152602001624e524360e81b81525081600390816100649190610323565b5060046100718282610323565b5050506001600160a01b0381166100a357604051631e4fbdf760e01b8152600060048201526024015b60405180910390fd5b6100ac816100ce565b5060016006556100c9336c01431e0fae6d7217caa0000000610120565b610408565b600580546001600160a01b038381166001600160a01b0319831681179093556040519116919082907f8be0079c531659141344cd1fd0a4f28419497f9722a3daafe3b4186f6b6457e090600090a35050565b6001600160a01b03821661014a5760405163ec442f0560e01b81526000600482015260240161009a565b6101566000838361015a565b5050565b6001600160a01b03831661018557806002600082825461017a91906103e1565b909155506101f79050565b6001600160a01b038316600090815260208190526040902054818110156101d85760405163391434e360e21b81526001600160a01b0385166004820152602481018290526044810183905260640161009a565b6001600160a01b03841660009081526020819052604090209082900390555b6001600160a01b03821661021357600280548290039055610232565b6001600160a01b03821660009081526020819052604090208054820190555b816001600160a01b0316836001600160a01b03167fddf252ad1be2c89b69c2b068fc378daa952ba7f163c4a11628f55a4df523b3ef8360405161027791815260200190565b60405180910390a3505050565b634e487b7160e01b600052604160045260246000fd5b600181811c908216806102ae57607f821691505b6020821081036102ce57634e487b7160e01b600052602260045260246000fd5b50919050565b601f82111561031e57806000526020600020601f840160051c810160208510156102fb5750805b601f840160051c820191505b8181101561031b5760008155600101610307565b50505b505050565b81516001600160401b0381111561033c5761033c610284565b6103508161034a845461029a565b846102d4565b6020601f821160018114610384576000831561036c5750848201515b600019600385901b1c1916600184901b17845561031b565b600084815260208120601f198516915b828110156103b45787850151825560209485019460019092019101610394565b50848210156103d25786840151600019600387901b60f8161c191681555b50505050600190811b01905550565b8082018082111561040257634e487b7160e01b600052601160045260246000fd5b92915050565b6112f8806104176000396000f3fe608060405234801561001057600080fd5b506004361061014d5760003560e01c80634420e486116100c357806395d89b411161007c57806395d89b41146102df578063a9059cbb146102e7578063d495bd3e146102fa578063dd62ed3e14610302578063e4e103dc1461033b578063f2fde38b1461034e57600080fd5b80634420e4861461026357806370a0823114610276578063715018a61461029f57806379cc6790146102a75780638da5cb5b146102ba578063902d55a5146102cb57600080fd5b80632365dce2116101155780632365dce2146101db57806323b872dd14610206578063313ce5671461021957806342966c681461022857806343e7ced41461023d578063440866691461025057600080fd5b80630103c92b1461015257806306fdde0314610178578063095ea7b31461018d5780630e50cee5146101b057806318160ddd146101d3575b600080fd5b610165610160366004610fa3565b610361565b6040519081526020015b60405180910390f35b6101806103c6565b60405161016f919061100b565b6101a061019b36600461101e565b610458565b604051901515815260200161016f565b6101a06101be366004610fa3565b60076020526000908152604090205460ff1681565b600254610165565b6101ee6101e9366004611048565b610472565b6040516001600160a01b03909116815260200161016f565b6101a0610214366004611061565b61049c565b6040516012815260200161016f565b61023b610236366004611048565b6104c0565b005b61023b61024b36600461109e565b6104cd565b61023b61025e36600461101e565b610699565b61023b610271366004610fa3565b6107d3565b610165610284366004610fa3565b6001600160a01b031660009081526020819052604090205490565b61023b6108d0565b61023b6102b536600461101e565b6108e4565b6005546001600160a01b03166101ee565b6101656c01431e0fae6d7217caa000000081565b6101806108f9565b6101a06102f536600461101e565b610908565b61023b610916565b610165610310366004611115565b6001600160a01b03918216600090815260016020908152604080832093909416825291909152205490565b61023b61034936600461101e565b610a0e565b61023b61035c366004610fa3565b610b84565b6001600160a01b038116600090815260076020526040812054829060ff166103a45760405162461bcd60e51b815260040161039b90611148565b60405180910390fd5b6001600160a01b03831660009081526020819052604090205491505b50919050565b6060600380546103d590611198565b80601f016020809104026020016040519081016040528092919081815260200182805461040190611198565b801561044e5780601f106104235761010080835404028352916020019161044e565b820191906000526020600020905b81548152906001019060200180831161043157829003601f168201915b5050505050905090565b600033610466818585610bbf565b60019150505b92915050565b6008818154811061048257600080fd5b6000918252602090912001546001600160a01b0316905081565b6000336104aa858285610bcc565b6104b5858585610c4a565b506001949350505050565b6104ca3382610ca9565b50565b6104d5610cdf565b6104dd610d0c565b8060005b8181101561061c57368484838181106104fc576104fc6111cc565b905060200281019061050e91906111e2565b604051651c995dd85c9960d21b60208201529091506026016040516020818303038152906040528051906020012081806020019061054c9190611202565b60405160200161055d929190611250565b6040516020818303038152906040528051906020012003610592576105926105886020830183610fa3565b8260400135610a0e565b6040516563686172676560d01b6020820152602601604051602081830303815290604052805190602001208180602001906105cd9190611202565b6040516020016105de929190611250565b6040516020818303038152906040528051906020012003610613576106136106096020830183610fa3565b8260400135610699565b506001016104e1565b604080518082018252601d81527f4261746368205472616e73616374696f6e732066756c66696c6c65642e000000602082015290517fba22914b5f35e753eeba89c84166c9e2a643668069ef2ec3e73cb4cfc7ae940d906106809083908690611260565b60405180910390a15050506106956001600655565b5050565b6106a1610cdf565b6001600160a01b038216600090815260076020526040902054829060ff166106db5760405162461bcd60e51b815260040161039b90611148565b6106e3610d0c565b81610703846001600160a01b031660009081526020819052604090205490565b10156107495760405162461bcd60e51b815260206004820152601560248201527424b739bab33334b1b4b2b73a103130b630b731b29760591b604482015260640161039b565b6107768361075f6005546001600160a01b031690565b61077185670de0b6b3a7640000611298565b610c4a565b6001600160a01b0383167fbb66b58f5459be38aa7d38e2dfd5fa196b865cf44bea5b5ecd8c40ea1c30b7b86107b384670de0b6b3a7640000611298565b60405190815260200160405180910390a26107ce6001600655565b505050565b6107db610cdf565b6001600160a01b03811660009081526007602052604090205460ff16156108445760405162461bcd60e51b815260206004820152601b60248201527f4163636f756e7420616c726561647920726567697374657265642e0000000000604482015260640161039b565b6001600160a01b038116600081815260076020526040808220805460ff1916600190811790915560088054918201815583527ff3f7a9fe364faab93b216da50a3214154f22a0a2b415b23a84c8169e8b636ee30180546001600160a01b03191684179055517f54db7a5cb4735e1aac1f53db512d3390390bb6637bd30ad4bf9fc98667d9b9b99190a250565b6108d8610cdf565b6108e26000610d36565b565b6108ef823383610bcc565b6106958282610ca9565b6060600480546103d590611198565b600033610466818585610c4a565b61091e610cdf565b6000805b60085481101561099f57600060088281548110610941576109416111cc565b60009182526020808320909101546001600160a01b031680835290829052604090912054909150925082156109965761098c816109866005546001600160a01b031690565b85610c4a565b6109968184610ca9565b50600101610922565b50604080518082018252601b81527f416c6c20746f6b656e732068617665206265656e2072657365742e0000000000602082015290517f2700486a56f7ebdaffdb2cdc6742899490956c735567e7d890a23ab34aa53fe990610a0290839061100b565b60405180910390a15050565b6001600160a01b038216600090815260076020526040902054829060ff16610a485760405162461bcd60e51b815260040161039b90611148565b610a50610cdf565b610a58610d0c565b81610a6e6102846005546001600160a01b031690565b1015610ad15760405162461bcd60e51b815260206004820152602c60248201527f496e73756666696369656e742062616c616e636520746f20726577617264207960448201526b37bab91030b1ba34b7b7399760a11b606482015260840161039b565b6001600160a01b038316610b1f5760405162461bcd60e51b815260206004820152601560248201527424b73b30b634b2103ab9b2b91030b2323932b9b99760591b604482015260640161039b565b610b47610b346005546001600160a01b031690565b8461077185670de0b6b3a7640000611298565b6001600160a01b0383167fe366ef68d2c0620e9e4c5074fd7ad0ce6739b65287f9c2d09b7d002da556879b6107b384670de0b6b3a7640000611298565b610b8c610cdf565b6001600160a01b038116610bb657604051631e4fbdf760e01b81526000600482015260240161039b565b6104ca81610d36565b6107ce8383836001610d88565b6001600160a01b038381166000908152600160209081526040808320938616835292905220546000198114610c445781811015610c3557604051637dc7a0d960e11b81526001600160a01b0384166004820152602481018290526044810183905260640161039b565b610c4484848484036000610d88565b50505050565b6001600160a01b038316610c7457604051634b637e8f60e11b81526000600482015260240161039b565b6001600160a01b038216610c9e5760405163ec442f0560e01b81526000600482015260240161039b565b6107ce838383610e5d565b6001600160a01b038216610cd357604051634b637e8f60e11b81526000600482015260240161039b565b61069582600083610e5d565b6005546001600160a01b031633146108e25760405163118cdaa760e01b815233600482015260240161039b565b600260065403610d2f57604051633ee5aeb560e01b815260040160405180910390fd5b6002600655565b600580546001600160a01b038381166001600160a01b0319831681179093556040519116919082907f8be0079c531659141344cd1fd0a4f28419497f9722a3daafe3b4186f6b6457e090600090a35050565b6001600160a01b038416610db25760405163e602df0560e01b81526000600482015260240161039b565b6001600160a01b038316610ddc57604051634a1406b160e11b81526000600482015260240161039b565b6001600160a01b0380851660009081526001602090815260408083209387168352929052208290558015610c4457826001600160a01b0316846001600160a01b03167f8c5be1e5ebec7d5bd14f71427d1e84f3dd0314c0f7b2291e5b200ac8c7c3b92584604051610e4f91815260200190565b60405180910390a350505050565b6001600160a01b038316610e88578060026000828254610e7d91906112af565b90915550610efa9050565b6001600160a01b03831660009081526020819052604090205481811015610edb5760405163391434e360e21b81526001600160a01b0385166004820152602481018290526044810183905260640161039b565b6001600160a01b03841660009081526020819052604090209082900390555b6001600160a01b038216610f1657600280548290039055610f35565b6001600160a01b03821660009081526020819052604090208054820190555b816001600160a01b0316836001600160a01b03167fddf252ad1be2c89b69c2b068fc378daa952ba7f163c4a11628f55a4df523b3ef83604051610f7a91815260200190565b60405180910390a3505050565b80356001600160a01b0381168114610f9e57600080fd5b919050565b600060208284031215610fb557600080fd5b610fbe82610f87565b9392505050565b6000815180845260005b81811015610feb57602081850181015186830182015201610fcf565b506000602082860101526020601f19601f83011685010191505092915050565b602081526000610fbe6020830184610fc5565b6000806040838503121561103157600080fd5b61103a83610f87565b946020939093013593505050565b60006020828403121561105a57600080fd5b5035919050565b60008060006060848603121561107657600080fd5b61107f84610f87565b925061108d60208501610f87565b929592945050506040919091013590565b600080602083850312156110b157600080fd5b823567ffffffffffffffff8111156110c857600080fd5b8301601f810185136110d957600080fd5b803567ffffffffffffffff8111156110f057600080fd5b8560208260051b840101111561110557600080fd5b6020919091019590945092505050565b6000806040838503121561112857600080fd5b61113183610f87565b915061113f60208401610f87565b90509250929050565b60208082526030908201527f546869732075736572206973206e6f742072656769737465726564206f6e206f60408201526f3ab910383630ba3337b936903cb2ba1760811b606082015260800190565b600181811c908216806111ac57607f821691505b6020821081036103c057634e487b7160e01b600052602260045260246000fd5b634e487b7160e01b600052603260045260246000fd5b60008235605e198336030181126111f857600080fd5b9190910192915050565b6000808335601e1984360301811261121957600080fd5b83018035915067ffffffffffffffff82111561123457600080fd5b60200191503681900382131561124957600080fd5b9250929050565b8183823760009101908152919050565b6040815260006112736040830185610fc5565b90508260208301529392505050565b634e487b7160e01b600052601160045260246000fd5b808202811582820484141761046c5761046c611282565b8082018082111561046c5761046c61128256fea2646970667358221220866e972d3ff9c5500be0f8f1412dde39e7a16718ebfdce0d8db8e711d712d07664736f6c634300081b0033",
  "linkReferences": {},
  "deployedLinkReferences": {}
}